{
  "contractName": "FWC",
  "abi": [
    {
      "constant": true,
      "inputs": [],
      "name": "name",
      "outputs": [
        {
          "name": "",
          "type": "string"
        }
      ],
      "payable": false,
      "stateMutability": "view",
      "type": "function"
    },
    {
      "constant": false,
      "inputs": [
        {
          "name": "spender",
          "type": "address"
        },
        {
          "name": "value",
          "type": "uint256"
        }
      ],
      "name": "approve",
      "outputs": [
        {
          "name": "",
          "type": "bool"
        }
      ],
      "payable": false,
      "stateMutability": "nonpayable",
      "type": "function"
    },
    {
      "constant": true,
      "inputs": [],
      "name": "totalSupply",
      "outputs": [
        {
          "name": "",
          "type": "uint256"
        }
      ],
      "payable": false,
      "stateMutability": "view",
      "type": "function"
    },
    {
      "constant": false,
      "inputs": [
        {
          "name": "from",
          "type": "address"
        },
        {
          "name": "to",
          "type": "address"
        },
        {
          "name": "value",
          "type": "uint256"
        }
      ],
      "name": "transferFrom",
      "outputs": [
        {
          "name": "",
          "type": "bool"
        }
      ],
      "payable": false,
      "stateMutability": "nonpayable",
      "type": "function"
    },
    {
      "constant": true,
      "inputs": [],
      "name": "decimals",
      "outputs": [
        {
          "name": "",
          "type": "uint256"
        }
      ],
      "payable": false,
      "stateMutability": "view",
      "type": "function"
    },
    {
      "constant": false,
      "inputs": [
        {
          "name": "spender",
          "type": "address"
        },
        {
          "name": "addedValue",
          "type": "uint256"
        }
      ],
      "name": "increaseAllowance",
      "outputs": [
        {
          "name": "",
          "type": "bool"
        }
      ],
      "payable": false,
      "stateMutability": "nonpayable",
      "type": "function"
    },
    {
      "constant": false,
      "inputs": [
        {
          "name": "to",
          "type": "address"
        },
        {
          "name": "value",
          "type": "uint256"
        }
      ],
      "name": "mint",
      "outputs": [
        {
          "name": "",
          "type": "bool"
        }
      ],
      "payable": false,
      "stateMutability": "nonpayable",
      "type": "function"
    },
    {
      "constant": true,
      "inputs": [
        {
          "name": "owner",
          "type": "address"
        }
      ],
      "name": "balanceOf",
      "outputs": [
        {
          "name": "",
          "type": "uint256"
        }
      ],
      "payable": false,
      "stateMutability": "view",
      "type": "function"
    },
    {
      "constant": true,
      "inputs": [],
      "name": "symbol",
      "outputs": [
        {
          "name": "",
          "type": "string"
        }
      ],
      "payable": false,
      "stateMutability": "view",
      "type": "function"
    },
    {
      "constant": false,
      "inputs": [
        {
          "name": "account",
          "type": "address"
        }
      ],
      "name": "addMinter",
      "outputs": [],
      "payable": false,
      "stateMutability": "nonpayable",
      "type": "function"
    },
    {
      "constant": false,
      "inputs": [],
      "name": "renounceMinter",
      "outputs": [],
      "payable": false,
      "stateMutability": "nonpayable",
      "type": "function"
    },
    {
      "constant": false,
      "inputs": [
        {
          "name": "spender",
          "type": "address"
        },
        {
          "name": "subtractedValue",
          "type": "uint256"
        }
      ],
      "name": "decreaseAllowance",
      "outputs": [
        {
          "name": "",
          "type": "bool"
        }
      ],
      "payable": false,
      "stateMutability": "nonpayable",
      "type": "function"
    },
    {
      "constant": false,
      "inputs": [
        {
          "name": "to",
          "type": "address"
        },
        {
          "name": "value",
          "type": "uint256"
        }
      ],
      "name": "transfer",
      "outputs": [
        {
          "name": "",
          "type": "bool"
        }
      ],
      "payable": false,
      "stateMutability": "nonpayable",
      "type": "function"
    },
    {
      "constant": true,
      "inputs": [
        {
          "name": "account",
          "type": "address"
        }
      ],
      "name": "isMinter",
      "outputs": [
        {
          "name": "",
          "type": "bool"
        }
      ],
      "payable": false,
      "stateMutability": "view",
      "type": "function"
    },
    {
      "constant": true,
      "inputs": [
        {
          "name": "owner",
          "type": "address"
        },
        {
          "name": "spender",
          "type": "address"
        }
      ],
      "name": "allowance",
      "outputs": [
        {
          "name": "",
          "type": "uint256"
        }
      ],
      "payable": false,
      "stateMutability": "view",
      "type": "function"
    },
    {
      "inputs": [],
      "payable": false,
      "stateMutability": "nonpayable",
      "type": "constructor"
    },
    {
      "anonymous": false,
      "inputs": [
        {
          "indexed": false,
          "name": "actionId",
          "type": "uint256"
        },
        {
          "indexed": false,
          "name": "actor",
          "type": "address"
        },
        {
          "indexed": false,
          "name": "msg",
          "type": "string"
        },
        {
          "indexed": false,
          "name": "amount",
          "type": "uint256"
        },
        {
          "indexed": false,
          "name": "balance",
          "type": "uint256"
        }
      ],
      "name": "Wager",
      "type": "event"
    },
    {
      "anonymous": false,
      "inputs": [
        {
          "indexed": false,
          "name": "actionId",
          "type": "uint256"
        },
        {
          "indexed": false,
          "name": "acceptor",
          "type": "address"
        },
        {
          "indexed": false,
          "name": "msg",
          "type": "string"
        },
        {
          "indexed": false,
          "name": "amount",
          "type": "uint256"
        },
        {
          "indexed": false,
          "name": "balance",
          "type": "uint256"
        }
      ],
      "name": "WagerAccepted",
      "type": "event"
    },
    {
      "anonymous": false,
      "inputs": [
        {
          "indexed": false,
          "name": "actionId",
          "type": "uint256"
        },
        {
          "indexed": false,
          "name": "loser",
          "type": "address"
        },
        {
          "indexed": false,
          "name": "winner",
          "type": "address"
        },
        {
          "indexed": false,
          "name": "amount",
          "type": "uint256"
        }
      ],
      "name": "Shame",
      "type": "event"
    },
    {
      "anonymous": false,
      "inputs": [
        {
          "indexed": true,
          "name": "account",
          "type": "address"
        }
      ],
      "name": "MinterAdded",
      "type": "event"
    },
    {
      "anonymous": false,
      "inputs": [
        {
          "indexed": true,
          "name": "account",
          "type": "address"
        }
      ],
      "name": "MinterRemoved",
      "type": "event"
    },
    {
      "anonymous": false,
      "inputs": [
        {
          "indexed": true,
          "name": "from",
          "type": "address"
        },
        {
          "indexed": true,
          "name": "to",
          "type": "address"
        },
        {
          "indexed": false,
          "name": "value",
          "type": "uint256"
        }
      ],
      "name": "Transfer",
      "type": "event"
    },
    {
      "anonymous": false,
      "inputs": [
        {
          "indexed": true,
          "name": "owner",
          "type": "address"
        },
        {
          "indexed": true,
          "name": "spender",
          "type": "address"
        },
        {
          "indexed": false,
          "name": "value",
          "type": "uint256"
        }
      ],
      "name": "Approval",
      "type": "event"
    },
    {
      "constant": false,
      "inputs": [
        {
          "name": "_amount",
          "type": "uint256"
        },
        {
          "name": "_des",
          "type": "string"
        }
      ],
      "name": "makeWager",
      "outputs": [],
      "payable": false,
      "stateMutability": "nonpayable",
      "type": "function"
    },
    {
      "constant": false,
      "inputs": [
        {
          "name": "_actionId",
          "type": "uint256"
        }
      ],
      "name": "acceptWager",
      "outputs": [],
      "payable": false,
      "stateMutability": "nonpayable",
      "type": "function"
    },
    {
      "constant": false,
      "inputs": [
        {
          "name": "_actionId",
          "type": "uint256"
        }
      ],
      "name": "youWin",
      "outputs": [],
      "payable": false,
      "stateMutability": "nonpayable",
      "type": "function"
    },
    {
      "constant": true,
      "inputs": [
        {
          "name": "_actionId",
          "type": "uint256"
        }
      ],
      "name": "getWagerBettor",
      "outputs": [
        {
          "name": "",
          "type": "address"
        }
      ],
      "payable": false,
      "stateMutability": "view",
      "type": "function"
    },
    {
      "constant": true,
      "inputs": [
        {
          "name": "_actionId",
          "type": "uint256"
        }
      ],
      "name": "getWagerAcceptor",
      "outputs": [
        {
          "name": "",
          "type": "address"
        }
      ],
      "payable": false,
      "stateMutability": "view",
      "type": "function"
    },
    {
      "constant": true,
      "inputs": [
        {
          "name": "_actionId",
          "type": "uint256"
        }
      ],
      "name": "getWagerAmount",
      "outputs": [
        {
          "name": "",
          "type": "uint256"
        }
      ],
      "payable": false,
      "stateMutability": "view",
      "type": "function"
    },
    {
      "constant": true,
      "inputs": [
        {
          "name": "_actionId",
          "type": "uint256"
        }
      ],
      "name": "getWagerDescription",
      "outputs": [
        {
          "name": "",
          "type": "string"
        }
      ],
      "payable": false,
      "stateMutability": "view",
      "type": "function"
    },
    {
      "constant": true,
      "inputs": [
        {
          "name": "_actionId",
          "type": "uint256"
        }
      ],
      "name": "getWagerStatus",
      "outputs": [
        {
          "name": "",
          "type": "uint256"
        }
      ],
      "payable": false,
      "stateMutability": "view",
      "type": "function"
    },
    {
      "constant": true,
      "inputs": [],
      "name": "getId",
      "outputs": [
        {
          "name": "",
          "type": "uint256"
        }
      ],
      "payable": false,
      "stateMutability": "view",
      "type": "function"
    }
  ],
  "bytecode": "0x60806040526040805190810160405280601381526020017f467269656e646c7920576167657220436f696e0000000000000000000000000081525060049080519060200190620000519291906200029d565b506040805190810160405280600381526020017f4657430000000000000000000000000000000000000000000000000000000000815250600590805190602001906200009f9291906200029d565b506000600655348015620000b257600080fd5b50620000cd33620000db640100000000026401000000009004565b60006008819055506200034c565b620000ff816003620001456401000000000262001d13179091906401000000009004565b8073ffffffffffffffffffffffffffffffffffffffff167f6ae172837ea30b801fbfcdd4108aa1d5bf8ff775444fd70256b44e6bf3dfc3f660405160405180910390a250565b600073ffffffffffffffffffffffffffffffffffffffff168173ffffffffffffffffffffffffffffffffffffffff16141515156200018257600080fd5b6200019d828262000208640100000000026401000000009004565b151515620001aa57600080fd5b60018260000160008373ffffffffffffffffffffffffffffffffffffffff1673ffffffffffffffffffffffffffffffffffffffff16815260200190815260200160002060006101000a81548160ff0219169083151502179055505050565b60008073ffffffffffffffffffffffffffffffffffffffff168273ffffffffffffffffffffffffffffffffffffffff16141515156200024657600080fd5b8260000160008373ffffffffffffffffffffffffffffffffffffffff1673ffffffffffffffffffffffffffffffffffffffff16815260200190815260200160002060009054906101000a900460ff16905092915050565b828054600181600116156101000203166002900490600052602060002090601f016020900481019282601f10620002e057805160ff191683800117855562000311565b8280016001018555821562000311579182015b8281111562000310578251825591602001919060010190620002f3565b5b50905062000320919062000324565b5090565b6200034991905b80821115620003455760008160009055506001016200032b565b5090565b90565b611f43806200035c6000396000f3fe608060405234801561001057600080fd5b5060043610610175576000357c01000000000000000000000000000000000000000000000000000000009004806395d89b41116100e0578063a9059cbb11610099578063a9059cbb1461076f578063a9e0f3c5146107d5578063aa271e1a14610817578063ca89768414610873578063dd62ed3e146108e1578063dfe8265e1461095957610175565b806395d89b41146105c8578063983b2d561461064b578063986502751461068f5780639c37d7ea146106995780639e286fb9146106c7578063a457c2d71461070957610175565b8063395093511161013257806339509351146103ea57806340c10f19146104505780635d1ca631146104b657806370a08231146104d45780638d59d88b1461052c578063946dd56a1461055a57610175565b806306fdde031461017a578063095ea7b3146101fd57806318160ddd1461026357806323b872dd14610281578063313ce567146103075780633904d51d14610325575b600080fd5b610182610a00565b6040518080602001828103825283818151815260200191508051906020019080838360005b838110156101c25780820151818401526020810190506101a7565b50505050905090810190601f1680156101ef5780820380516001836020036101000a031916815260200191505b509250505060405180910390f35b6102496004803603604081101561021357600080fd5b81019080803573ffffffffffffffffffffffffffffffffffffffff16906020019092919080359060200190929190505050610a9e565b604051808215151515815260200191505060405180910390f35b61026b610ab5565b6040518082815260200191505060405180910390f35b6102ed6004803603606081101561029757600080fd5b81019080803573ffffffffffffffffffffffffffffffffffffffff169060200190929190803573ffffffffffffffffffffffffffffffffffffffff16906020019092919080359060200190929190505050610abf565b604051808215151515815260200191505060405180910390f35b61030f610b70565b6040518082815260200191505060405180910390f35b6103e86004803603604081101561033b57600080fd5b81019080803590602001909291908035906020019064010000000081111561036257600080fd5b82018360208201111561037457600080fd5b8035906020019184600183028401116401000000008311171561039657600080fd5b91908080601f016020809104026020016040519081016040528093929190818152602001838380828437600081840152601f19601f820116905080830192505050505050509192919290505050610b76565b005b6104366004803603604081101561040057600080fd5b81019080803573ffffffffffffffffffffffffffffffffffffffff16906020019092919080359060200190929190505050610cb1565b604051808215151515815260200191505060405180910390f35b61049c6004803603604081101561046657600080fd5b81019080803573ffffffffffffffffffffffffffffffffffffffff16906020019092919080359060200190929190505050610d56565b604051808215151515815260200191505060405180910390f35b6104be610d80565b6040518082815260200191505060405180910390f35b610516600480360360208110156104ea57600080fd5b81019080803573ffffffffffffffffffffffffffffffffffffffff169060200190929190505050610d8a565b6040518082815260200191505060405180910390f35b6105586004803603602081101561054257600080fd5b8101908080359060200190929190505050610dd2565b005b6105866004803603602081101561057057600080fd5b81019080803590602001909291905050506110c7565b604051808273ffffffffffffffffffffffffffffffffffffffff1673ffffffffffffffffffffffffffffffffffffffff16815260200191505060405180910390f35b6105d0611107565b6040518080602001828103825283818151815260200191508051906020019080838360005b838110156106105780820151818401526020810190506105f5565b50505050905090810190601f16801561063d5780820380516001836020036101000a031916815260200191505b509250505060405180910390f35b61068d6004803603602081101561066157600080fd5b81019080803573ffffffffffffffffffffffffffffffffffffffff1690602001909291905050506111a5565b005b6106976111c5565b005b6106c5600480360360208110156106af57600080fd5b81019080803590602001909291905050506111d0565b005b6106f3600480360360208110156106dd57600080fd5b81019080803590602001909291905050506113a1565b6040518082815260200191505060405180910390f35b6107556004803603604081101561071f57600080fd5b81019080803573ffffffffffffffffffffffffffffffffffffffff169060200190929190803590602001909291905050506113d9565b604051808215151515815260200191505060405180910390f35b6107bb6004803603604081101561078557600080fd5b81019080803573ffffffffffffffffffffffffffffffffffffffff1690602001909291908035906020019092919050505061147e565b604051808215151515815260200191505060405180910390f35b610801600480360360208110156107eb57600080fd5b8101908080359060200190929190505050611495565b6040518082815260200191505060405180910390f35b6108596004803603602081101561082d57600080fd5b81019080803573ffffffffffffffffffffffffffffffffffffffff1690602001909291905050506114b5565b604051808215151515815260200191505060405180910390f35b61089f6004803603602081101561088957600080fd5b81019080803590602001909291905050506114d2565b604051808273ffffffffffffffffffffffffffffffffffffffff1673ffffffffffffffffffffffffffffffffffffffff16815260200191505060405180910390f35b610943600480360360408110156108f757600080fd5b81019080803573ffffffffffffffffffffffffffffffffffffffff169060200190929190803573ffffffffffffffffffffffffffffffffffffffff169060200190929190505050611512565b6040518082815260200191505060405180910390f35b6109856004803603602081101561096f57600080fd5b8101908080359060200190929190505050611599565b6040518080602001828103825283818151815260200191508051906020019080838360005b838110156109c55780820151818401526020810190506109aa565b50505050905090810190601f1680156109f25780820380516001836020036101000a031916815260200191505b509250505060405180910390f35b60048054600181600116156101000203166002900480601f016020809104026020016040519081016040528092919081815260200182805460018160011615610100020316600290048015610a965780601f10610a6b57610100808354040283529160200191610a96565b820191906000526020600020905b815481529060010190602001808311610a7957829003601f168201915b505050505081565b6000610aab338484611651565b6001905092915050565b6000600254905090565b6000610acc8484846117b4565b610b658433610b6085600160008a73ffffffffffffffffffffffffffffffffffffffff1673ffffffffffffffffffffffffffffffffffffffff16815260200190815260200160002060003373ffffffffffffffffffffffffffffffffffffffff1673ffffffffffffffffffffffffffffffffffffffff1681526020019081526020016000205461198090919063ffffffff16565b611651565b600190509392505050565b60065481565b8180610b8133610d8a565b10151515610b8e57600080fd5b6008600081548092919060010191905055507f469a8578ad775a8bd5dc41e22e072b1fabb2409420b887cfbe4017083d574d28600854338486610bd033610d8a565b604051808681526020018573ffffffffffffffffffffffffffffffffffffffff1673ffffffffffffffffffffffffffffffffffffffff16815260200180602001848152602001838152602001828103825285818151815260200191508051906020019080838360005b83811015610c54578082015181840152602081019050610c39565b50505050905090810190601f168015610c815780820380516001836020036101000a031916815260200191505b50965050505050505060405180910390a160648251101515610ca257600080fd5b610cac83836119a2565b505050565b6000610d4c3384610d4785600160003373ffffffffffffffffffffffffffffffffffffffff1673ffffffffffffffffffffffffffffffffffffffff16815260200190815260200160002060008973ffffffffffffffffffffffffffffffffffffffff1673ffffffffffffffffffffffffffffffffffffffff16815260200190815260200160002054611a5690919063ffffffff16565b611651565b6001905092915050565b6000610d61336114b5565b1515610d6c57600080fd5b610d768383611a77565b6001905092915050565b6000600854905090565b60008060008373ffffffffffffffffffffffffffffffffffffffff1673ffffffffffffffffffffffffffffffffffffffff168152602001908152602001600020549050919050565b8060026005811115610de057fe5b610de9826113a1565b141515610df557600080fd5b81338073ffffffffffffffffffffffffffffffffffffffff16610e17836114d2565b73ffffffffffffffffffffffffffffffffffffffff161480610e6c57508073ffffffffffffffffffffffffffffffffffffffff16610e54836110c7565b73ffffffffffffffffffffffffffffffffffffffff16145b1515610e7757600080fd5b6000610e82856114d2565b90506000610e8f866110c7565b90503373ffffffffffffffffffffffffffffffffffffffff168273ffffffffffffffffffffffffffffffffffffffff161415610fc45760056007600088815260200190815260200160002060040160146101000a81548160ff02191690836005811115610ef857fe5b02179055507f64a056f73c2d1f68aa38a6fdc8b0c8a3b07ee6ba5a34353a0134194f83e5b7d6863383610f2a8a611495565b604051808581526020018473ffffffffffffffffffffffffffffffffffffffff1673ffffffffffffffffffffffffffffffffffffffff1681526020018373ffffffffffffffffffffffffffffffffffffffff1673ffffffffffffffffffffffffffffffffffffffff16815260200182815260200194505050505060405180910390a1610fbe81610fb988611495565b61147e565b506110bf565b60046007600088815260200190815260200160002060040160146101000a81548160ff02191690836005811115610ff757fe5b02179055507f64a056f73c2d1f68aa38a6fdc8b0c8a3b07ee6ba5a34353a0134194f83e5b7d68633846110298a611495565b604051808581526020018473ffffffffffffffffffffffffffffffffffffffff1673ffffffffffffffffffffffffffffffffffffffff1681526020018373ffffffffffffffffffffffffffffffffffffffff1673ffffffffffffffffffffffffffffffffffffffff16815260200182815260200194505050505060405180910390a16110bd826110b888611495565b61147e565b505b505050505050565b60006007600083815260200190815260200160002060040160009054906101000a900473ffffffffffffffffffffffffffffffffffffffff169050919050565b60058054600181600116156101000203166002900480601f01602080910402602001604051908101604052809291908181526020018280546001816001161561010002031660029004801561119d5780601f106111725761010080835404028352916020019161119d565b820191906000526020600020905b81548152906001019060200180831161118057829003601f168201915b505050505081565b6111ae336114b5565b15156111b957600080fd5b6111c281611bcb565b50565b6111ce33611c25565b565b80600160058111156111de57fe5b6111e7826113a1565b1415156111f357600080fd5b60006111fe33610d8a565b905061120983611495565b811015151561121757600080fd5b7f606c86c5dcbef704e7aa9c51d43b0d6043c7093c8df365f985e74d369f9627c1833361124386611599565b61124c87611495565b85604051808681526020018573ffffffffffffffffffffffffffffffffffffffff1673ffffffffffffffffffffffffffffffffffffffff16815260200180602001848152602001838152602001828103825285818151815260200191508051906020019080838360005b838110156112d15780820151818401526020810190506112b6565b50505050905090810190601f1680156112fe5780820380516001836020036101000a031916815260200191505b50965050505050505060405180910390a160026007600085815260200190815260200160002060040160146101000a81548160ff0219169083600581111561134257fe5b0217905550336007600085815260200190815260200160002060040160006101000a81548173ffffffffffffffffffffffffffffffffffffffff021916908373ffffffffffffffffffffffffffffffffffffffff160217905550505050565b60006007600083815260200190815260200160002060040160149054906101000a900460ff1660058111156113d257fe5b9050919050565b6000611474338461146f85600160003373ffffffffffffffffffffffffffffffffffffffff1673ffffffffffffffffffffffffffffffffffffffff16815260200190815260200160002060008973ffffffffffffffffffffffffffffffffffffffff1673ffffffffffffffffffffffffffffffffffffffff1681526020019081526020016000205461198090919063ffffffff16565b611651565b6001905092915050565b600061148b3384846117b4565b6001905092915050565b600060076000838152602001908152602001600020600101549050919050565b60006114cb826003611c7f90919063ffffffff16565b9050919050565b60006007600083815260200190815260200160002060030160009054906101000a900473ffffffffffffffffffffffffffffffffffffffff169050919050565b6000600160008473ffffffffffffffffffffffffffffffffffffffff1673ffffffffffffffffffffffffffffffffffffffff16815260200190815260200160002060008373ffffffffffffffffffffffffffffffffffffffff1673ffffffffffffffffffffffffffffffffffffffff16815260200190815260200160002054905092915050565b6060600760008381526020019081526020016000206002018054600181600116156101000203166002900480601f0160208091040260200160405190810160405280929190818152602001828054600181600116156101000203166002900480156116455780601f1061161a57610100808354040283529160200191611645565b820191906000526020600020905b81548152906001019060200180831161162857829003601f168201915b50505050509050919050565b600073ffffffffffffffffffffffffffffffffffffffff168273ffffffffffffffffffffffffffffffffffffffff161415151561168d57600080fd5b600073ffffffffffffffffffffffffffffffffffffffff168373ffffffffffffffffffffffffffffffffffffffff16141515156116c957600080fd5b80600160008573ffffffffffffffffffffffffffffffffffffffff1673ffffffffffffffffffffffffffffffffffffffff16815260200190815260200160002060008473ffffffffffffffffffffffffffffffffffffffff1673ffffffffffffffffffffffffffffffffffffffff168152602001908152602001600020819055508173ffffffffffffffffffffffffffffffffffffffff168373ffffffffffffffffffffffffffffffffffffffff167f8c5be1e5ebec7d5bd14f71427d1e84f3dd0314c0f7b2291e5b200ac8c7c3b925836040518082815260200191505060405180910390a3505050565b600073ffffffffffffffffffffffffffffffffffffffff168273ffffffffffffffffffffffffffffffffffffffff16141515156117f057600080fd5b611841816000808673ffffffffffffffffffffffffffffffffffffffff1673ffffffffffffffffffffffffffffffffffffffff1681526020019081526020016000205461198090919063ffffffff16565b6000808573ffffffffffffffffffffffffffffffffffffffff1673ffffffffffffffffffffffffffffffffffffffff168152602001908152602001600020819055506118d4816000808573ffffffffffffffffffffffffffffffffffffffff1673ffffffffffffffffffffffffffffffffffffffff16815260200190815260200160002054611a5690919063ffffffff16565b6000808473ffffffffffffffffffffffffffffffffffffffff1673ffffffffffffffffffffffffffffffffffffffff168152602001908152602001600020819055508173ffffffffffffffffffffffffffffffffffffffff168373ffffffffffffffffffffffffffffffffffffffff167fddf252ad1be2c89b69c2b068fc378daa952ba7f163c4a11628f55a4df523b3ef836040518082815260200191505060405180910390a3505050565b600082821115151561199157600080fd5b600082840390508091505092915050565b600060076000600854815260200190815260200160002090506008548160000181905550338160030160006101000a81548173ffffffffffffffffffffffffffffffffffffffff021916908373ffffffffffffffffffffffffffffffffffffffff16021790555060018160040160146101000a81548160ff02191690836005811115611a2a57fe5b021790555082816001018190555081816002019080519060200190611a50929190611e72565b50505050565b6000808284019050838110151515611a6d57600080fd5b8091505092915050565b600073ffffffffffffffffffffffffffffffffffffffff168273ffffffffffffffffffffffffffffffffffffffff1614151515611ab357600080fd5b611ac881600254611a5690919063ffffffff16565b600281905550611b1f816000808573ffffffffffffffffffffffffffffffffffffffff1673ffffffffffffffffffffffffffffffffffffffff16815260200190815260200160002054611a5690919063ffffffff16565b6000808473ffffffffffffffffffffffffffffffffffffffff1673ffffffffffffffffffffffffffffffffffffffff168152602001908152602001600020819055508173ffffffffffffffffffffffffffffffffffffffff16600073ffffffffffffffffffffffffffffffffffffffff167fddf252ad1be2c89b69c2b068fc378daa952ba7f163c4a11628f55a4df523b3ef836040518082815260200191505060405180910390a35050565b611bdf816003611d1390919063ffffffff16565b8073ffffffffffffffffffffffffffffffffffffffff167f6ae172837ea30b801fbfcdd4108aa1d5bf8ff775444fd70256b44e6bf3dfc3f660405160405180910390a250565b611c39816003611dc390919063ffffffff16565b8073ffffffffffffffffffffffffffffffffffffffff167fe94479a9f7e1952cc78f2d6baab678adc1b772d936c6583def489e524cb6669260405160405180910390a250565b60008073ffffffffffffffffffffffffffffffffffffffff168273ffffffffffffffffffffffffffffffffffffffff1614151515611cbc57600080fd5b8260000160008373ffffffffffffffffffffffffffffffffffffffff1673ffffffffffffffffffffffffffffffffffffffff16815260200190815260200160002060009054906101000a900460ff16905092915050565b600073ffffffffffffffffffffffffffffffffffffffff168173ffffffffffffffffffffffffffffffffffffffff1614151515611d4f57600080fd5b611d598282611c7f565b151515611d6557600080fd5b60018260000160008373ffffffffffffffffffffffffffffffffffffffff1673ffffffffffffffffffffffffffffffffffffffff16815260200190815260200160002060006101000a81548160ff0219169083151502179055505050565b600073ffffffffffffffffffffffffffffffffffffffff168173ffffffffffffffffffffffffffffffffffffffff1614151515611dff57600080fd5b611e098282611c7f565b1515611e1457600080fd5b60008260000160008373ffffffffffffffffffffffffffffffffffffffff1673ffffffffffffffffffffffffffffffffffffffff16815260200190815260200160002060006101000a81548160ff0219169083151502179055505050565b828054600181600116156101000203166002900490600052602060002090601f016020900481019282601f10611eb357805160ff1916838001178555611ee1565b82800160010185558215611ee1579182015b82811115611ee0578251825591602001919060010190611ec5565b5b509050611eee9190611ef2565b5090565b611f1491905b80821115611f10576000816000905550600101611ef8565b5090565b9056fea165627a7a72305820af9ed281d665a1d61ab5273ebdf424271c4782af5a15afec29860a152e58a5e40029",
  "source": "pragma solidity ^0.5.2;\n\nimport \"openzeppelin-solidity/contracts/token/ERC20/ERC20Mintable.sol\";\n\ncontract FWC is ERC20Mintable {\n\n    string public name = \"Friendly Wager Coin\";\n    string public symbol = \"FWC\";\n    uint public decimals = 0;\n\n    enum Outcome { NIL, OPEN, ACCEPTED, HOUSE_WINS, BETTOR_WINS, ACCEPTOR_WINS }\n\n    struct Action {\n        uint256 id;\n        uint256 amount;\n        string description;\n        address bettor;\n        address acceptor;\n        Outcome status;\n    }\n\n    mapping (uint256 => Action) wagers;\n\n    uint256 private _id;\n\n    event Wager(uint256 actionId, address actor, string msg, uint256 amount, uint256 balance);\n    event WagerAccepted(uint256 actionId, address acceptor, string msg, uint256 amount, uint256 balance);\n    event Shame(uint256 actionId, address loser, address winner, uint256 amount);\n\n    constructor() public {\n        _id = 0;\n    }\n\n    modifier bettorHasFunds(uint _amount) {\n        require(balanceOf(msg.sender) >= _amount);\n        _;\n    }\n\n    modifier isInvolved(uint256 _actionId, address party) {\n        require(\n            (getWagerBettor(_actionId) == party) ||\n            (getWagerAcceptor(_actionId) == party));\n        _;\n    }\n\n    modifier actionIsOpen(uint256 _actionId) {\n        require(getWagerStatus(_actionId) == uint(Outcome.OPEN));\n        _;\n    }\n\n    modifier actionIsAccepted(uint256 _actionId) {\n        require(getWagerStatus(_actionId) == uint(Outcome.ACCEPTED));\n        _;\n    }\n\n    function makeWager(uint256 _amount, string memory _des) public bettorHasFunds(_amount) {\n        _id++;\n        emit Wager(_id, msg.sender, _des, _amount, balanceOf(msg.sender));\n        require(bytes(_des).length < 100);\n        _generateAction(_amount, _des);\n    }\n\n    function _generateAction(uint256 _amount, string memory _des) private {\n        FWC.Action storage action = wagers[_id];\n        action.id = _id;\n        action.bettor = msg.sender;\n        action.status = Outcome.OPEN;\n        action.amount = _amount;\n        action.description = _des;\n    }\n\n    function acceptWager(uint256 _actionId) public actionIsOpen(_actionId) {\n        uint balance = balanceOf(msg.sender);\n        require(balance >= getWagerAmount(_actionId));\n        emit WagerAccepted(_actionId, msg.sender, getWagerDescription(_actionId), getWagerAmount(_actionId), balance);\n        wagers[_actionId].status = Outcome.ACCEPTED;\n        wagers[_actionId].acceptor = msg.sender;\n    }\n\n    function youWin(uint256 _actionId)\n    public\n    actionIsAccepted(_actionId)\n    isInvolved(_actionId, msg.sender) {\n        address _bettor = getWagerBettor(_actionId);\n        address _acceptor = getWagerAcceptor(_actionId);\n        if (_bettor == msg.sender) {\n            wagers[_actionId].status = Outcome.ACCEPTOR_WINS;\n            emit Shame(_actionId, msg.sender, _acceptor, getWagerAmount(_actionId));\n            transfer(_acceptor, getWagerAmount(_actionId));\n        } else {\n            wagers[_actionId].status = Outcome.BETTOR_WINS;\n            emit Shame(_actionId, msg.sender, _bettor, getWagerAmount(_actionId));\n            transfer(_bettor, getWagerAmount(_actionId));\n        }\n    }\n\n    //\\\\//\\\\//\\\\//\\\\//\\\\//\\\\//\\\\//\\\\//\\\\//\\\\//\\\\//\\\\//\\\\//\\\\//\\\\//\\\\//\\\\//\\\\//\n    // Views\n\n    function getWagerBettor(uint256 _actionId) public view returns (address) {\n        return wagers[_actionId].bettor;\n    }\n\n    function getWagerAcceptor(uint256 _actionId) public view returns (address) {\n        return wagers[_actionId].acceptor;\n    }\n\n    function getWagerAmount(uint256 _actionId) public view returns (uint256) {\n        return wagers[_actionId].amount;\n    }\n\n    function getWagerDescription(uint256 _actionId) public view returns (string memory) {\n        return wagers[_actionId].description;\n    }\n\n    function getWagerStatus(uint256 _actionId) public view returns (uint) {\n        return uint(wagers[_actionId].status);\n    }\n\n    function getId() public view returns (uint256) {\n        return _id;\n    }\n}\n",
  "sourcePath": "/Users/christoph/opt/src/folkengine/fwc/contracts/contracts/FWC.sol",
  "compiler": {
    "name": "solc",
    "version": "0.5.2+commit.1df8f40c.Emscripten.clang"
  },
  "schemaVersion": "3.0.3",
  "updatedAt": "2019-03-18T13:28:44.271Z",
  "devdoc": {
    "methods": {
      "allowance(address,address)": {
        "details": "Function to check the amount of tokens that an owner allowed to a spender.",
        "params": {
          "owner": "address The address which owns the funds.",
          "spender": "address The address which will spend the funds."
        },
        "return": "A uint256 specifying the amount of tokens still available for the spender."
      },
      "approve(address,uint256)": {
        "details": "Approve the passed address to spend the specified amount of tokens on behalf of msg.sender. Beware that changing an allowance with this method brings the risk that someone may use both the old and the new allowance by unfortunate transaction ordering. One possible solution to mitigate this race condition is to first reduce the spender's allowance to 0 and set the desired value afterwards: https://github.com/ethereum/EIPs/issues/20#issuecomment-263524729",
        "params": {
          "spender": "The address which will spend the funds.",
          "value": "The amount of tokens to be spent."
        }
      },
      "balanceOf(address)": {
        "details": "Gets the balance of the specified address.",
        "params": {
          "owner": "The address to query the balance of."
        },
        "return": "A uint256 representing the amount owned by the passed address."
      },
      "decreaseAllowance(address,uint256)": {
        "details": "Decrease the amount of tokens that an owner allowed to a spender. approve should be called when _allowed[msg.sender][spender] == 0. To decrement allowed value is better to use this function to avoid 2 calls (and wait until the first transaction is mined) From MonolithDAO Token.sol Emits an Approval event.",
        "params": {
          "spender": "The address which will spend the funds.",
          "subtractedValue": "The amount of tokens to decrease the allowance by."
        }
      },
      "increaseAllowance(address,uint256)": {
        "details": "Increase the amount of tokens that an owner allowed to a spender. approve should be called when _allowed[msg.sender][spender] == 0. To increment allowed value is better to use this function to avoid 2 calls (and wait until the first transaction is mined) From MonolithDAO Token.sol Emits an Approval event.",
        "params": {
          "addedValue": "The amount of tokens to increase the allowance by.",
          "spender": "The address which will spend the funds."
        }
      },
      "mint(address,uint256)": {
        "details": "Function to mint tokens",
        "params": {
          "to": "The address that will receive the minted tokens.",
          "value": "The amount of tokens to mint."
        },
        "return": "A boolean that indicates if the operation was successful."
      },
      "totalSupply()": {
        "details": "Total number of tokens in existence"
      },
      "transfer(address,uint256)": {
        "details": "Transfer token to a specified address",
        "params": {
          "to": "The address to transfer to.",
          "value": "The amount to be transferred."
        }
      },
      "transferFrom(address,address,uint256)": {
        "details": "Transfer tokens from one address to another. Note that while this function emits an Approval event, this is not required as per the specification, and other compliant implementations may not emit the event.",
        "params": {
          "from": "address The address which you want to send tokens from",
          "to": "address The address which you want to transfer to",
          "value": "uint256 the amount of tokens to be transferred"
        }
      }
    }
  },
  "userdoc": {
    "methods": {}
  }
}