{
  "contractName": "FWC",
  "abi": [
    {
      "constant": true,
      "inputs": [],
      "name": "name",
      "outputs": [
        {
          "name": "",
          "type": "string"
        }
      ],
      "payable": false,
      "stateMutability": "view",
      "type": "function"
    },
    {
      "constant": false,
      "inputs": [
        {
          "name": "spender",
          "type": "address"
        },
        {
          "name": "value",
          "type": "uint256"
        }
      ],
      "name": "approve",
      "outputs": [
        {
          "name": "",
          "type": "bool"
        }
      ],
      "payable": false,
      "stateMutability": "nonpayable",
      "type": "function"
    },
    {
      "constant": true,
      "inputs": [],
      "name": "totalSupply",
      "outputs": [
        {
          "name": "",
          "type": "uint256"
        }
      ],
      "payable": false,
      "stateMutability": "view",
      "type": "function"
    },
    {
      "constant": false,
      "inputs": [
        {
          "name": "from",
          "type": "address"
        },
        {
          "name": "to",
          "type": "address"
        },
        {
          "name": "value",
          "type": "uint256"
        }
      ],
      "name": "transferFrom",
      "outputs": [
        {
          "name": "",
          "type": "bool"
        }
      ],
      "payable": false,
      "stateMutability": "nonpayable",
      "type": "function"
    },
    {
      "constant": true,
      "inputs": [],
      "name": "decimals",
      "outputs": [
        {
          "name": "",
          "type": "uint256"
        }
      ],
      "payable": false,
      "stateMutability": "view",
      "type": "function"
    },
    {
      "constant": false,
      "inputs": [
        {
          "name": "spender",
          "type": "address"
        },
        {
          "name": "addedValue",
          "type": "uint256"
        }
      ],
      "name": "increaseAllowance",
      "outputs": [
        {
          "name": "",
          "type": "bool"
        }
      ],
      "payable": false,
      "stateMutability": "nonpayable",
      "type": "function"
    },
    {
      "constant": false,
      "inputs": [
        {
          "name": "to",
          "type": "address"
        },
        {
          "name": "value",
          "type": "uint256"
        }
      ],
      "name": "mint",
      "outputs": [
        {
          "name": "",
          "type": "bool"
        }
      ],
      "payable": false,
      "stateMutability": "nonpayable",
      "type": "function"
    },
    {
      "constant": true,
      "inputs": [
        {
          "name": "owner",
          "type": "address"
        }
      ],
      "name": "balanceOf",
      "outputs": [
        {
          "name": "",
          "type": "uint256"
        }
      ],
      "payable": false,
      "stateMutability": "view",
      "type": "function"
    },
    {
      "constant": true,
      "inputs": [],
      "name": "symbol",
      "outputs": [
        {
          "name": "",
          "type": "string"
        }
      ],
      "payable": false,
      "stateMutability": "view",
      "type": "function"
    },
    {
      "constant": false,
      "inputs": [
        {
          "name": "account",
          "type": "address"
        }
      ],
      "name": "addMinter",
      "outputs": [],
      "payable": false,
      "stateMutability": "nonpayable",
      "type": "function"
    },
    {
      "constant": false,
      "inputs": [],
      "name": "renounceMinter",
      "outputs": [],
      "payable": false,
      "stateMutability": "nonpayable",
      "type": "function"
    },
    {
      "constant": false,
      "inputs": [
        {
          "name": "spender",
          "type": "address"
        },
        {
          "name": "subtractedValue",
          "type": "uint256"
        }
      ],
      "name": "decreaseAllowance",
      "outputs": [
        {
          "name": "",
          "type": "bool"
        }
      ],
      "payable": false,
      "stateMutability": "nonpayable",
      "type": "function"
    },
    {
      "constant": false,
      "inputs": [
        {
          "name": "to",
          "type": "address"
        },
        {
          "name": "value",
          "type": "uint256"
        }
      ],
      "name": "transfer",
      "outputs": [
        {
          "name": "",
          "type": "bool"
        }
      ],
      "payable": false,
      "stateMutability": "nonpayable",
      "type": "function"
    },
    {
      "constant": true,
      "inputs": [
        {
          "name": "account",
          "type": "address"
        }
      ],
      "name": "isMinter",
      "outputs": [
        {
          "name": "",
          "type": "bool"
        }
      ],
      "payable": false,
      "stateMutability": "view",
      "type": "function"
    },
    {
      "constant": true,
      "inputs": [
        {
          "name": "owner",
          "type": "address"
        },
        {
          "name": "spender",
          "type": "address"
        }
      ],
      "name": "allowance",
      "outputs": [
        {
          "name": "",
          "type": "uint256"
        }
      ],
      "payable": false,
      "stateMutability": "view",
      "type": "function"
    },
    {
      "inputs": [],
      "payable": false,
      "stateMutability": "nonpayable",
      "type": "constructor"
    },
    {
      "anonymous": false,
      "inputs": [
        {
          "indexed": false,
          "name": "actionId",
          "type": "uint256"
        },
        {
          "indexed": false,
          "name": "actor",
          "type": "address"
        },
        {
          "indexed": false,
          "name": "msg",
          "type": "string"
        },
        {
          "indexed": false,
          "name": "amount",
          "type": "uint256"
        },
        {
          "indexed": false,
          "name": "balance",
          "type": "uint256"
        }
      ],
      "name": "Wager",
      "type": "event"
    },
    {
      "anonymous": false,
      "inputs": [
        {
          "indexed": false,
          "name": "actionId",
          "type": "uint256"
        },
        {
          "indexed": false,
          "name": "acceptor",
          "type": "address"
        },
        {
          "indexed": false,
          "name": "msg",
          "type": "string"
        },
        {
          "indexed": false,
          "name": "amount",
          "type": "uint256"
        },
        {
          "indexed": false,
          "name": "balance",
          "type": "uint256"
        }
      ],
      "name": "WagerAccepted",
      "type": "event"
    },
    {
      "anonymous": false,
      "inputs": [
        {
          "indexed": false,
          "name": "actionId",
          "type": "uint256"
        },
        {
          "indexed": false,
          "name": "loser",
          "type": "address"
        },
        {
          "indexed": false,
          "name": "winner",
          "type": "address"
        },
        {
          "indexed": false,
          "name": "amount",
          "type": "uint256"
        }
      ],
      "name": "Shame",
      "type": "event"
    },
    {
      "anonymous": false,
      "inputs": [
        {
          "indexed": true,
          "name": "account",
          "type": "address"
        }
      ],
      "name": "MinterAdded",
      "type": "event"
    },
    {
      "anonymous": false,
      "inputs": [
        {
          "indexed": true,
          "name": "account",
          "type": "address"
        }
      ],
      "name": "MinterRemoved",
      "type": "event"
    },
    {
      "anonymous": false,
      "inputs": [
        {
          "indexed": true,
          "name": "from",
          "type": "address"
        },
        {
          "indexed": true,
          "name": "to",
          "type": "address"
        },
        {
          "indexed": false,
          "name": "value",
          "type": "uint256"
        }
      ],
      "name": "Transfer",
      "type": "event"
    },
    {
      "anonymous": false,
      "inputs": [
        {
          "indexed": true,
          "name": "owner",
          "type": "address"
        },
        {
          "indexed": true,
          "name": "spender",
          "type": "address"
        },
        {
          "indexed": false,
          "name": "value",
          "type": "uint256"
        }
      ],
      "name": "Approval",
      "type": "event"
    },
    {
      "constant": false,
      "inputs": [
        {
          "name": "_amount",
          "type": "uint256"
        },
        {
          "name": "_des",
          "type": "string"
        }
      ],
      "name": "makeWager",
      "outputs": [],
      "payable": false,
      "stateMutability": "nonpayable",
      "type": "function"
    },
    {
      "constant": false,
      "inputs": [
        {
          "name": "_actionId",
          "type": "uint256"
        }
      ],
      "name": "acceptWager",
      "outputs": [],
      "payable": false,
      "stateMutability": "nonpayable",
      "type": "function"
    },
    {
      "constant": false,
      "inputs": [
        {
          "name": "_actionId",
          "type": "uint256"
        }
      ],
      "name": "youWin",
      "outputs": [],
      "payable": false,
      "stateMutability": "nonpayable",
      "type": "function"
    },
    {
      "constant": true,
      "inputs": [
        {
          "name": "_actionId",
          "type": "uint256"
        }
      ],
      "name": "getWagerBettor",
      "outputs": [
        {
          "name": "",
          "type": "address"
        }
      ],
      "payable": false,
      "stateMutability": "view",
      "type": "function"
    },
    {
      "constant": true,
      "inputs": [
        {
          "name": "_actionId",
          "type": "uint256"
        }
      ],
      "name": "getWagerAcceptor",
      "outputs": [
        {
          "name": "",
          "type": "address"
        }
      ],
      "payable": false,
      "stateMutability": "view",
      "type": "function"
    },
    {
      "constant": true,
      "inputs": [
        {
          "name": "_actionId",
          "type": "uint256"
        }
      ],
      "name": "getWagerAmount",
      "outputs": [
        {
          "name": "",
          "type": "uint256"
        }
      ],
      "payable": false,
      "stateMutability": "view",
      "type": "function"
    },
    {
      "constant": true,
      "inputs": [
        {
          "name": "_actionId",
          "type": "uint256"
        }
      ],
      "name": "getWagerDescription",
      "outputs": [
        {
          "name": "",
          "type": "string"
        }
      ],
      "payable": false,
      "stateMutability": "view",
      "type": "function"
    },
    {
      "constant": true,
      "inputs": [
        {
          "name": "_actionId",
          "type": "uint256"
        }
      ],
      "name": "getWagerStatus",
      "outputs": [
        {
          "name": "",
          "type": "uint256"
        }
      ],
      "payable": false,
      "stateMutability": "view",
      "type": "function"
    },
    {
      "constant": true,
      "inputs": [],
      "name": "getId",
      "outputs": [
        {
          "name": "",
          "type": "uint256"
        }
      ],
      "payable": false,
      "stateMutability": "view",
      "type": "function"
    }
  ],
  "bytecode": "0x60806040526040805190810160405280601381526020017f467269656e646c7920576167657220436f696e0000000000000000000000000081525060049080519060200190620000519291906200029d565b506040805190810160405280600381526020017f4657430000000000000000000000000000000000000000000000000000000000815250600590805190602001906200009f9291906200029d565b506000600655348015620000b257600080fd5b50620000cd33620000db640100000000026401000000009004565b60006008819055506200034c565b620000ff816003620001456401000000000262002242179091906401000000009004565b8073ffffffffffffffffffffffffffffffffffffffff167f6ae172837ea30b801fbfcdd4108aa1d5bf8ff775444fd70256b44e6bf3dfc3f660405160405180910390a250565b600073ffffffffffffffffffffffffffffffffffffffff168173ffffffffffffffffffffffffffffffffffffffff16141515156200018257600080fd5b6200019d828262000208640100000000026401000000009004565b151515620001aa57600080fd5b60018260000160008373ffffffffffffffffffffffffffffffffffffffff1673ffffffffffffffffffffffffffffffffffffffff16815260200190815260200160002060006101000a81548160ff0219169083151502179055505050565b60008073ffffffffffffffffffffffffffffffffffffffff168273ffffffffffffffffffffffffffffffffffffffff16141515156200024657600080fd5b8260000160008373ffffffffffffffffffffffffffffffffffffffff1673ffffffffffffffffffffffffffffffffffffffff16815260200190815260200160002060009054906101000a900460ff16905092915050565b828054600181600116156101000203166002900490600052602060002090601f016020900481019282601f10620002e057805160ff191683800117855562000311565b8280016001018555821562000311579182015b8281111562000310578251825591602001919060010190620002f3565b5b50905062000320919062000324565b5090565b6200034991905b80821115620003455760008160009055506001016200032b565b5090565b90565b612472806200035c6000396000f3fe60806040526004361061013e576000357c0100000000000000000000000000000000000000000000000000000000900463ffffffff16806306fdde0314610143578063095ea7b3146101d357806318160ddd1461024657806323b872dd14610271578063313ce567146103045780633904d51d1461032f578063395093511461040157806340c10f19146104745780635d1ca631146104e757806370a08231146105125780638d59d88b14610577578063946dd56a146105b257806395d89b411461062d578063983b2d56146106bd578063986502751461070e5780639c37d7ea146107255780639e286fb914610760578063a457c2d7146107af578063a9059cbb14610822578063a9e0f3c514610895578063aa271e1a146108e4578063ca8976841461094d578063dd62ed3e146109c8578063dfe8265e14610a4d575b600080fd5b34801561014f57600080fd5b50610158610b01565b6040518080602001828103825283818151815260200191508051906020019080838360005b8381101561019857808201518184015260208101905061017d565b50505050905090810190601f1680156101c55780820380516001836020036101000a031916815260200191505b509250505060405180910390f35b3480156101df57600080fd5b5061022c600480360360408110156101f657600080fd5b81019080803573ffffffffffffffffffffffffffffffffffffffff16906020019092919080359060200190929190505050610b9f565b604051808215151515815260200191505060405180910390f35b34801561025257600080fd5b5061025b610ccc565b6040518082815260200191505060405180910390f35b34801561027d57600080fd5b506102ea6004803603606081101561029457600080fd5b81019080803573ffffffffffffffffffffffffffffffffffffffff169060200190929190803573ffffffffffffffffffffffffffffffffffffffff16906020019092919080359060200190929190505050610cd6565b604051808215151515815260200191505060405180910390f35b34801561031057600080fd5b50610319610ede565b6040518082815260200191505060405180910390f35b34801561033b57600080fd5b506103ff6004803603604081101561035257600080fd5b81019080803590602001909291908035906020019064010000000081111561037957600080fd5b82018360208201111561038b57600080fd5b803590602001918460018302840111640100000000831117156103ad57600080fd5b91908080601f016020809104026020016040519081016040528093929190818152602001838380828437600081840152601f19601f820116905080830192505050505050509192919290505050610ee4565b005b34801561040d57600080fd5b5061045a6004803603604081101561042457600080fd5b81019080803573ffffffffffffffffffffffffffffffffffffffff1690602001909291908035906020019092919050505061101f565b604051808215151515815260200191505060405180910390f35b34801561048057600080fd5b506104cd6004803603604081101561049757600080fd5b81019080803573ffffffffffffffffffffffffffffffffffffffff16906020019092919080359060200190929190505050611256565b604051808215151515815260200191505060405180910390f35b3480156104f357600080fd5b506104fc611280565b6040518082815260200191505060405180910390f35b34801561051e57600080fd5b506105616004803603602081101561053557600080fd5b81019080803573ffffffffffffffffffffffffffffffffffffffff16906020019092919050505061128a565b6040518082815260200191505060405180910390f35b34801561058357600080fd5b506105b06004803603602081101561059a57600080fd5b81019080803590602001909291905050506112d2565b005b3480156105be57600080fd5b506105eb600480360360208110156105d557600080fd5b81019080803590602001909291905050506115c7565b604051808273ffffffffffffffffffffffffffffffffffffffff1673ffffffffffffffffffffffffffffffffffffffff16815260200191505060405180910390f35b34801561063957600080fd5b50610642611607565b6040518080602001828103825283818151815260200191508051906020019080838360005b83811015610682578082015181840152602081019050610667565b50505050905090810190601f1680156106af5780820380516001836020036101000a031916815260200191505b509250505060405180910390f35b3480156106c957600080fd5b5061070c600480360360208110156106e057600080fd5b81019080803573ffffffffffffffffffffffffffffffffffffffff1690602001909291905050506116a5565b005b34801561071a57600080fd5b506107236116c5565b005b34801561073157600080fd5b5061075e6004803603602081101561074857600080fd5b81019080803590602001909291905050506116d0565b005b34801561076c57600080fd5b506107996004803603602081101561078357600080fd5b81019080803590602001909291905050506118a1565b6040518082815260200191505060405180910390f35b3480156107bb57600080fd5b50610808600480360360408110156107d257600080fd5b81019080803573ffffffffffffffffffffffffffffffffffffffff169060200190929190803590602001909291905050506118d9565b604051808215151515815260200191505060405180910390f35b34801561082e57600080fd5b5061087b6004803603604081101561084557600080fd5b81019080803573ffffffffffffffffffffffffffffffffffffffff16906020019092919080359060200190929190505050611b10565b604051808215151515815260200191505060405180910390f35b3480156108a157600080fd5b506108ce600480360360208110156108b857600080fd5b8101908080359060200190929190505050611b27565b6040518082815260200191505060405180910390f35b3480156108f057600080fd5b506109336004803603602081101561090757600080fd5b81019080803573ffffffffffffffffffffffffffffffffffffffff169060200190929190505050611b47565b604051808215151515815260200191505060405180910390f35b34801561095957600080fd5b506109866004803603602081101561097057600080fd5b8101908080359060200190929190505050611b64565b604051808273ffffffffffffffffffffffffffffffffffffffff1673ffffffffffffffffffffffffffffffffffffffff16815260200191505060405180910390f35b3480156109d457600080fd5b50610a37600480360360408110156109eb57600080fd5b81019080803573ffffffffffffffffffffffffffffffffffffffff169060200190929190803573ffffffffffffffffffffffffffffffffffffffff169060200190929190505050611ba4565b6040518082815260200191505060405180910390f35b348015610a5957600080fd5b50610a8660048036036020811015610a7057600080fd5b8101908080359060200190929190505050611c2b565b6040518080602001828103825283818151815260200191508051906020019080838360005b83811015610ac6578082015181840152602081019050610aab565b50505050905090810190601f168015610af35780820380516001836020036101000a031916815260200191505b509250505060405180910390f35b60048054600181600116156101000203166002900480601f016020809104026020016040519081016040528092919081815260200182805460018160011615610100020316600290048015610b975780601f10610b6c57610100808354040283529160200191610b97565b820191906000526020600020905b815481529060010190602001808311610b7a57829003601f168201915b505050505081565b60008073ffffffffffffffffffffffffffffffffffffffff168373ffffffffffffffffffffffffffffffffffffffff1614151515610bdc57600080fd5b81600160003373ffffffffffffffffffffffffffffffffffffffff1673ffffffffffffffffffffffffffffffffffffffff16815260200190815260200160002060008573ffffffffffffffffffffffffffffffffffffffff1673ffffffffffffffffffffffffffffffffffffffff168152602001908152602001600020819055508273ffffffffffffffffffffffffffffffffffffffff163373ffffffffffffffffffffffffffffffffffffffff167f8c5be1e5ebec7d5bd14f71427d1e84f3dd0314c0f7b2291e5b200ac8c7c3b925846040518082815260200191505060405180910390a36001905092915050565b6000600254905090565b6000610d6782600160008773ffffffffffffffffffffffffffffffffffffffff1673ffffffffffffffffffffffffffffffffffffffff16815260200190815260200160002060003373ffffffffffffffffffffffffffffffffffffffff1673ffffffffffffffffffffffffffffffffffffffff16815260200190815260200160002054611ce390919063ffffffff16565b600160008673ffffffffffffffffffffffffffffffffffffffff1673ffffffffffffffffffffffffffffffffffffffff16815260200190815260200160002060003373ffffffffffffffffffffffffffffffffffffffff1673ffffffffffffffffffffffffffffffffffffffff16815260200190815260200160002081905550610df2848484611d05565b3373ffffffffffffffffffffffffffffffffffffffff168473ffffffffffffffffffffffffffffffffffffffff167f8c5be1e5ebec7d5bd14f71427d1e84f3dd0314c0f7b2291e5b200ac8c7c3b925600160008873ffffffffffffffffffffffffffffffffffffffff1673ffffffffffffffffffffffffffffffffffffffff16815260200190815260200160002060003373ffffffffffffffffffffffffffffffffffffffff1673ffffffffffffffffffffffffffffffffffffffff168152602001908152602001600020546040518082815260200191505060405180910390a3600190509392505050565b60065481565b8180610eef3361128a565b10151515610efc57600080fd5b6008600081548092919060010191905055507f469a8578ad775a8bd5dc41e22e072b1fabb2409420b887cfbe4017083d574d28600854338486610f3e3361128a565b604051808681526020018573ffffffffffffffffffffffffffffffffffffffff1673ffffffffffffffffffffffffffffffffffffffff16815260200180602001848152602001838152602001828103825285818151815260200191508051906020019080838360005b83811015610fc2578082015181840152602081019050610fa7565b50505050905090810190601f168015610fef5780820380516001836020036101000a031916815260200191505b50965050505050505060405180910390a16064825110151561101057600080fd5b61101a8383611ed1565b505050565b60008073ffffffffffffffffffffffffffffffffffffffff168373ffffffffffffffffffffffffffffffffffffffff161415151561105c57600080fd5b6110eb82600160003373ffffffffffffffffffffffffffffffffffffffff1673ffffffffffffffffffffffffffffffffffffffff16815260200190815260200160002060008673ffffffffffffffffffffffffffffffffffffffff1673ffffffffffffffffffffffffffffffffffffffff16815260200190815260200160002054611f8590919063ffffffff16565b600160003373ffffffffffffffffffffffffffffffffffffffff1673ffffffffffffffffffffffffffffffffffffffff16815260200190815260200160002060008573ffffffffffffffffffffffffffffffffffffffff1673ffffffffffffffffffffffffffffffffffffffff168152602001908152602001600020819055508273ffffffffffffffffffffffffffffffffffffffff163373ffffffffffffffffffffffffffffffffffffffff167f8c5be1e5ebec7d5bd14f71427d1e84f3dd0314c0f7b2291e5b200ac8c7c3b925600160003373ffffffffffffffffffffffffffffffffffffffff1673ffffffffffffffffffffffffffffffffffffffff16815260200190815260200160002060008773ffffffffffffffffffffffffffffffffffffffff1673ffffffffffffffffffffffffffffffffffffffff168152602001908152602001600020546040518082815260200191505060405180910390a36001905092915050565b600061126133611b47565b151561126c57600080fd5b6112768383611fa6565b6001905092915050565b6000600854905090565b60008060008373ffffffffffffffffffffffffffffffffffffffff1673ffffffffffffffffffffffffffffffffffffffff168152602001908152602001600020549050919050565b80600260058111156112e057fe5b6112e9826118a1565b1415156112f557600080fd5b81338073ffffffffffffffffffffffffffffffffffffffff1661131783611b64565b73ffffffffffffffffffffffffffffffffffffffff16148061136c57508073ffffffffffffffffffffffffffffffffffffffff16611354836115c7565b73ffffffffffffffffffffffffffffffffffffffff16145b151561137757600080fd5b600061138285611b64565b9050600061138f866115c7565b90503373ffffffffffffffffffffffffffffffffffffffff168273ffffffffffffffffffffffffffffffffffffffff1614156114c45760056007600088815260200190815260200160002060040160146101000a81548160ff021916908360058111156113f857fe5b02179055507f64a056f73c2d1f68aa38a6fdc8b0c8a3b07ee6ba5a34353a0134194f83e5b7d686338361142a8a611b27565b604051808581526020018473ffffffffffffffffffffffffffffffffffffffff1673ffffffffffffffffffffffffffffffffffffffff1681526020018373ffffffffffffffffffffffffffffffffffffffff1673ffffffffffffffffffffffffffffffffffffffff16815260200182815260200194505050505060405180910390a16114be816114b988611b27565b611b10565b506115bf565b60046007600088815260200190815260200160002060040160146101000a81548160ff021916908360058111156114f757fe5b02179055507f64a056f73c2d1f68aa38a6fdc8b0c8a3b07ee6ba5a34353a0134194f83e5b7d68633846115298a611b27565b604051808581526020018473ffffffffffffffffffffffffffffffffffffffff1673ffffffffffffffffffffffffffffffffffffffff1681526020018373ffffffffffffffffffffffffffffffffffffffff1673ffffffffffffffffffffffffffffffffffffffff16815260200182815260200194505050505060405180910390a16115bd826115b888611b27565b611b10565b505b505050505050565b60006007600083815260200190815260200160002060040160009054906101000a900473ffffffffffffffffffffffffffffffffffffffff169050919050565b60058054600181600116156101000203166002900480601f01602080910402602001604051908101604052809291908181526020018280546001816001161561010002031660029004801561169d5780601f106116725761010080835404028352916020019161169d565b820191906000526020600020905b81548152906001019060200180831161168057829003601f168201915b505050505081565b6116ae33611b47565b15156116b957600080fd5b6116c2816120fa565b50565b6116ce33612154565b565b80600160058111156116de57fe5b6116e7826118a1565b1415156116f357600080fd5b60006116fe3361128a565b905061170983611b27565b811015151561171757600080fd5b7f606c86c5dcbef704e7aa9c51d43b0d6043c7093c8df365f985e74d369f9627c1833361174386611c2b565b61174c87611b27565b85604051808681526020018573ffffffffffffffffffffffffffffffffffffffff1673ffffffffffffffffffffffffffffffffffffffff16815260200180602001848152602001838152602001828103825285818151815260200191508051906020019080838360005b838110156117d15780820151818401526020810190506117b6565b50505050905090810190601f1680156117fe5780820380516001836020036101000a031916815260200191505b50965050505050505060405180910390a160026007600085815260200190815260200160002060040160146101000a81548160ff0219169083600581111561184257fe5b0217905550336007600085815260200190815260200160002060040160006101000a81548173ffffffffffffffffffffffffffffffffffffffff021916908373ffffffffffffffffffffffffffffffffffffffff160217905550505050565b60006007600083815260200190815260200160002060040160149054906101000a900460ff1660058111156118d257fe5b9050919050565b60008073ffffffffffffffffffffffffffffffffffffffff168373ffffffffffffffffffffffffffffffffffffffff161415151561191657600080fd5b6119a582600160003373ffffffffffffffffffffffffffffffffffffffff1673ffffffffffffffffffffffffffffffffffffffff16815260200190815260200160002060008673ffffffffffffffffffffffffffffffffffffffff1673ffffffffffffffffffffffffffffffffffffffff16815260200190815260200160002054611ce390919063ffffffff16565b600160003373ffffffffffffffffffffffffffffffffffffffff1673ffffffffffffffffffffffffffffffffffffffff16815260200190815260200160002060008573ffffffffffffffffffffffffffffffffffffffff1673ffffffffffffffffffffffffffffffffffffffff168152602001908152602001600020819055508273ffffffffffffffffffffffffffffffffffffffff163373ffffffffffffffffffffffffffffffffffffffff167f8c5be1e5ebec7d5bd14f71427d1e84f3dd0314c0f7b2291e5b200ac8c7c3b925600160003373ffffffffffffffffffffffffffffffffffffffff1673ffffffffffffffffffffffffffffffffffffffff16815260200190815260200160002060008773ffffffffffffffffffffffffffffffffffffffff1673ffffffffffffffffffffffffffffffffffffffff168152602001908152602001600020546040518082815260200191505060405180910390a36001905092915050565b6000611b1d338484611d05565b6001905092915050565b600060076000838152602001908152602001600020600101549050919050565b6000611b5d8260036121ae90919063ffffffff16565b9050919050565b60006007600083815260200190815260200160002060030160009054906101000a900473ffffffffffffffffffffffffffffffffffffffff169050919050565b6000600160008473ffffffffffffffffffffffffffffffffffffffff1673ffffffffffffffffffffffffffffffffffffffff16815260200190815260200160002060008373ffffffffffffffffffffffffffffffffffffffff1673ffffffffffffffffffffffffffffffffffffffff16815260200190815260200160002054905092915050565b6060600760008381526020019081526020016000206002018054600181600116156101000203166002900480601f016020809104026020016040519081016040528092919081815260200182805460018160011615610100020316600290048015611cd75780601f10611cac57610100808354040283529160200191611cd7565b820191906000526020600020905b815481529060010190602001808311611cba57829003601f168201915b50505050509050919050565b6000828211151515611cf457600080fd5b600082840390508091505092915050565b600073ffffffffffffffffffffffffffffffffffffffff168273ffffffffffffffffffffffffffffffffffffffff1614151515611d4157600080fd5b611d92816000808673ffffffffffffffffffffffffffffffffffffffff1673ffffffffffffffffffffffffffffffffffffffff16815260200190815260200160002054611ce390919063ffffffff16565b6000808573ffffffffffffffffffffffffffffffffffffffff1673ffffffffffffffffffffffffffffffffffffffff16815260200190815260200160002081905550611e25816000808573ffffffffffffffffffffffffffffffffffffffff1673ffffffffffffffffffffffffffffffffffffffff16815260200190815260200160002054611f8590919063ffffffff16565b6000808473ffffffffffffffffffffffffffffffffffffffff1673ffffffffffffffffffffffffffffffffffffffff168152602001908152602001600020819055508173ffffffffffffffffffffffffffffffffffffffff168373ffffffffffffffffffffffffffffffffffffffff167fddf252ad1be2c89b69c2b068fc378daa952ba7f163c4a11628f55a4df523b3ef836040518082815260200191505060405180910390a3505050565b600060076000600854815260200190815260200160002090506008548160000181905550338160030160006101000a81548173ffffffffffffffffffffffffffffffffffffffff021916908373ffffffffffffffffffffffffffffffffffffffff16021790555060018160040160146101000a81548160ff02191690836005811115611f5957fe5b021790555082816001018190555081816002019080519060200190611f7f9291906123a1565b50505050565b6000808284019050838110151515611f9c57600080fd5b8091505092915050565b600073ffffffffffffffffffffffffffffffffffffffff168273ffffffffffffffffffffffffffffffffffffffff1614151515611fe257600080fd5b611ff781600254611f8590919063ffffffff16565b60028190555061204e816000808573ffffffffffffffffffffffffffffffffffffffff1673ffffffffffffffffffffffffffffffffffffffff16815260200190815260200160002054611f8590919063ffffffff16565b6000808473ffffffffffffffffffffffffffffffffffffffff1673ffffffffffffffffffffffffffffffffffffffff168152602001908152602001600020819055508173ffffffffffffffffffffffffffffffffffffffff16600073ffffffffffffffffffffffffffffffffffffffff167fddf252ad1be2c89b69c2b068fc378daa952ba7f163c4a11628f55a4df523b3ef836040518082815260200191505060405180910390a35050565b61210e81600361224290919063ffffffff16565b8073ffffffffffffffffffffffffffffffffffffffff167f6ae172837ea30b801fbfcdd4108aa1d5bf8ff775444fd70256b44e6bf3dfc3f660405160405180910390a250565b6121688160036122f290919063ffffffff16565b8073ffffffffffffffffffffffffffffffffffffffff167fe94479a9f7e1952cc78f2d6baab678adc1b772d936c6583def489e524cb6669260405160405180910390a250565b60008073ffffffffffffffffffffffffffffffffffffffff168273ffffffffffffffffffffffffffffffffffffffff16141515156121eb57600080fd5b8260000160008373ffffffffffffffffffffffffffffffffffffffff1673ffffffffffffffffffffffffffffffffffffffff16815260200190815260200160002060009054906101000a900460ff16905092915050565b600073ffffffffffffffffffffffffffffffffffffffff168173ffffffffffffffffffffffffffffffffffffffff161415151561227e57600080fd5b61228882826121ae565b15151561229457600080fd5b60018260000160008373ffffffffffffffffffffffffffffffffffffffff1673ffffffffffffffffffffffffffffffffffffffff16815260200190815260200160002060006101000a81548160ff0219169083151502179055505050565b600073ffffffffffffffffffffffffffffffffffffffff168173ffffffffffffffffffffffffffffffffffffffff161415151561232e57600080fd5b61233882826121ae565b151561234357600080fd5b60008260000160008373ffffffffffffffffffffffffffffffffffffffff1673ffffffffffffffffffffffffffffffffffffffff16815260200190815260200160002060006101000a81548160ff0219169083151502179055505050565b828054600181600116156101000203166002900490600052602060002090601f016020900481019282601f106123e257805160ff1916838001178555612410565b82800160010185558215612410579182015b8281111561240f5782518255916020019190600101906123f4565b5b50905061241d9190612421565b5090565b61244391905b8082111561243f576000816000905550600101612427565b5090565b9056fea165627a7a72305820745037c200c707d3f5a3ddd7d4239db4b74b9f22eca76442715ee12b462ba0a20029",
  "source": "pragma solidity ^0.5.0;\n\nimport \"openzeppelin-solidity/contracts/token/ERC20/ERC20Mintable.sol\";\n\ncontract FWC is ERC20Mintable {\n\n    string public name = \"Friendly Wager Coin\";\n    string public symbol = \"FWC\";\n    uint public decimals = 0;\n\n    enum Outcome { NIL, OPEN, ACCEPTED, HOUSE_WINS, BETTOR_WINS, ACCEPTOR_WINS }\n\n    struct Action {\n        uint256 id;\n        uint256 amount;\n        string description;\n        address bettor;\n        address acceptor;\n        Outcome status;\n    }\n\n    mapping (uint256 => Action) wagers;\n\n    uint256 private _id;\n\n    event Wager(uint256 actionId, address actor, string msg, uint256 amount, uint256 balance);\n    event WagerAccepted(uint256 actionId, address acceptor, string msg, uint256 amount, uint256 balance);\n    event Shame(uint256 actionId, address loser, address winner, uint256 amount);\n\n    constructor() public {\n        _id = 0;\n    }\n\n    modifier bettorHasFunds(uint _amount) {\n        require(balanceOf(msg.sender) >= _amount);\n        _;\n    }\n\n    modifier isInvolved(uint256 _actionId, address party) {\n        require(\n            (getWagerBettor(_actionId) == party) ||\n            (getWagerAcceptor(_actionId) == party));\n        _;\n    }\n\n    modifier actionIsOpen(uint256 _actionId) {\n        require(getWagerStatus(_actionId) == uint(Outcome.OPEN));\n        _;\n    }\n\n    modifier actionIsAccepted(uint256 _actionId) {\n        require(getWagerStatus(_actionId) == uint(Outcome.ACCEPTED));\n        _;\n    }\n\n    function makeWager(uint256 _amount, string memory _des) public bettorHasFunds(_amount) {\n        _id++;\n        emit Wager(_id, msg.sender, _des, _amount, balanceOf(msg.sender));\n        require(bytes(_des).length < 100);\n        _generateAction(_amount, _des);\n    }\n\n    function _generateAction(uint256 _amount, string memory _des) private {\n        FWC.Action storage action = wagers[_id];\n        action.id = _id;\n        action.bettor = msg.sender;\n        action.status = Outcome.OPEN;\n        action.amount = _amount;\n        action.description = _des;\n    }\n\n    function acceptWager(uint256 _actionId) public actionIsOpen(_actionId) {\n        uint balance = balanceOf(msg.sender);\n        require(balance >= getWagerAmount(_actionId));\n        emit WagerAccepted(_actionId, msg.sender, getWagerDescription(_actionId), getWagerAmount(_actionId), balance);\n        wagers[_actionId].status = Outcome.ACCEPTED;\n        wagers[_actionId].acceptor = msg.sender;\n    }\n\n    function youWin(uint256 _actionId)\n    public\n    actionIsAccepted(_actionId)\n    isInvolved(_actionId, msg.sender) {\n        address _bettor = getWagerBettor(_actionId);\n        address _acceptor = getWagerAcceptor(_actionId);\n        if (_bettor == msg.sender) {\n            wagers[_actionId].status = Outcome.ACCEPTOR_WINS;\n            emit Shame(_actionId, msg.sender, _acceptor, getWagerAmount(_actionId));\n            transfer(_acceptor, getWagerAmount(_actionId));\n        } else {\n            wagers[_actionId].status = Outcome.BETTOR_WINS;\n            emit Shame(_actionId, msg.sender, _bettor, getWagerAmount(_actionId));\n            transfer(_bettor, getWagerAmount(_actionId));\n        }\n    }\n\n    //\\\\//\\\\//\\\\//\\\\//\\\\//\\\\//\\\\//\\\\//\\\\//\\\\//\\\\//\\\\//\\\\//\\\\//\\\\//\\\\//\\\\//\\\\//\n    // Views\n\n    function getWagerBettor(uint256 _actionId) public view returns (address) {\n        return wagers[_actionId].bettor;\n    }\n\n    function getWagerAcceptor(uint256 _actionId) public view returns (address) {\n        return wagers[_actionId].acceptor;\n    }\n\n    function getWagerAmount(uint256 _actionId) public view returns (uint256) {\n        return wagers[_actionId].amount;\n    }\n\n    function getWagerDescription(uint256 _actionId) public view returns (string memory) {\n        return wagers[_actionId].description;\n    }\n\n    function getWagerStatus(uint256 _actionId) public view returns (uint) {\n        return uint(wagers[_actionId].status);\n    }\n\n    function getId() public view returns (uint256) {\n        return _id;\n    }\n}\n",
  "sourcePath": "/Users/christoph/opt/src/folkengine/fwc/contracts/FWC.sol",
  "compiler": {
    "name": "solc",
    "version": "0.5.0+commit.1d4f565a.Emscripten.clang"
  },
  "schemaVersion": "3.0.3",
  "updatedAt": "2019-03-21T21:18:34.107Z",
  "devdoc": {
    "methods": {
      "allowance(address,address)": {
        "details": "Function to check the amount of tokens that an owner allowed to a spender.",
        "params": {
          "owner": "address The address which owns the funds.",
          "spender": "address The address which will spend the funds."
        },
        "return": "A uint256 specifying the amount of tokens still available for the spender."
      },
      "approve(address,uint256)": {
        "details": "Approve the passed address to spend the specified amount of tokens on behalf of msg.sender. Beware that changing an allowance with this method brings the risk that someone may use both the old and the new allowance by unfortunate transaction ordering. One possible solution to mitigate this race condition is to first reduce the spender's allowance to 0 and set the desired value afterwards: https://github.com/ethereum/EIPs/issues/20#issuecomment-263524729",
        "params": {
          "spender": "The address which will spend the funds.",
          "value": "The amount of tokens to be spent."
        }
      },
      "balanceOf(address)": {
        "details": "Gets the balance of the specified address.",
        "params": {
          "owner": "The address to query the balance of."
        },
        "return": "An uint256 representing the amount owned by the passed address."
      },
      "decreaseAllowance(address,uint256)": {
        "details": "Decrease the amount of tokens that an owner allowed to a spender. approve should be called when allowed_[_spender] == 0. To decrement allowed value is better to use this function to avoid 2 calls (and wait until the first transaction is mined) From MonolithDAO Token.sol Emits an Approval event.",
        "params": {
          "spender": "The address which will spend the funds.",
          "subtractedValue": "The amount of tokens to decrease the allowance by."
        }
      },
      "increaseAllowance(address,uint256)": {
        "details": "Increase the amount of tokens that an owner allowed to a spender. approve should be called when allowed_[_spender] == 0. To increment allowed value is better to use this function to avoid 2 calls (and wait until the first transaction is mined) From MonolithDAO Token.sol Emits an Approval event.",
        "params": {
          "addedValue": "The amount of tokens to increase the allowance by.",
          "spender": "The address which will spend the funds."
        }
      },
      "mint(address,uint256)": {
        "details": "Function to mint tokens",
        "params": {
          "to": "The address that will receive the minted tokens.",
          "value": "The amount of tokens to mint."
        },
        "return": "A boolean that indicates if the operation was successful."
      },
      "totalSupply()": {
        "details": "Total number of tokens in existence"
      },
      "transfer(address,uint256)": {
        "details": "Transfer token for a specified address",
        "params": {
          "to": "The address to transfer to.",
          "value": "The amount to be transferred."
        }
      },
      "transferFrom(address,address,uint256)": {
        "details": "Transfer tokens from one address to another. Note that while this function emits an Approval event, this is not required as per the specification, and other compliant implementations may not emit the event.",
        "params": {
          "from": "address The address which you want to send tokens from",
          "to": "address The address which you want to transfer to",
          "value": "uint256 the amount of tokens to be transferred"
        }
      }
    }
  },
  "userdoc": {
    "methods": {}
  }
}